:020000040000FA
:020000000528D1
:0800080009008316F0308500A9
:10001000031788010C200A28831203130F30850070
:100020002B20A001850100302002031905140130A6
:10003000200203198514023020020319051503302C
:100040002002031985153720A00A04302002031D61
:100050001228850108003720372037203720372025
:100060000800F930A1000000A10B33280800C830B7
:10007000A2003D20A20B39280800F830A1000000A2
:10008000A10B3F2808000000000000000000000055
:040090000000080064
:00000001FF
