:020000040000FA
:020000001628C0
:08000800A300030EA400830114
:100010000B190B2811280B11A50AA60A3D308100E7
:100020001128240E8300A30E230E09000230023C87
:10003000A501A6018316F030850006108610880100
:10004000031788018901031307308104D730810524
:1000500083123D3081000B118B168B1773205F309C
:1000600084008313AA01061833280108A900A801F7
:1000700086183B283D2827103F2827143F28422078
:10008000542033280330A905003029020319013414
:100090000130290203190234023029020319043401
:1000A00003302902031908348000840AAA0A0800D0
:1000B00003138312AB015F30043008080F39003C92
:1000C000031D632865285D280800AD006E20003CF4
:1000D00003190800AB0A840A2B082A02AD080002A3
:1000E000031D00342D34831203130F30850092203A
:1000F000A0018501003020020319051401302002FF
:10010000031985140230200203190515033020025B
:10011000031985159E20A00A04302002031D7928AA
:10012000850108009E209E209E209E209E20080083
:10013000F930A1000000A10B9A280800C830A200E5
:10014000A420A20BA0280800F830A1000000A10BF9
:10015000A6280800000000000000000000000000C9
:02016000080095
:02400E00F42F8D
:02401000FF3F70
:00000001FF
